:1000000018C032C031C030C02FC02EC02DC02CC08F
:100010002BC02AC029C05CC087C026C025C024C010
:1000200023C022C021C04F4B0D0A0061663132331C
:10003000670011241FBECFE5D4E0DEBFCDBF10E0C6
:10004000A0E6B0E0ECE8F2E002C005900D92A03628
:10005000B107D9F710E0A0E6B0E001C01D92A03DC5
:10006000B107E1F7ECD010C1CBCF8FEF87BB88BBD6
:1000700008950F931F93CF93DF93EC01D7D088237C
:1000800001F110E00091CF0088D0202F30E0281738
:10009000390741F4E12FF0E08091CF00E953FF4FA1
:1000A00080831F5F8091CF008D3061F787EC90E0F7
:1000B000BE01D0D0009729F0CE01A4D081E090E01D
:1000C00002C080E090E0DF91CF911F910F910895E1
:1000D0001F920F920FB60F9211242F938F939F931D
:1000E000EF93FF939BB18CB1E0918200EF5FEF71D2
:1000F00020918100E21741F09871E0938200F0E0D6
:10010000EB57FF4F808301C092E080918000892BE4
:1001100080938000FF91EF919F918F912F910F908D
:100120000FBE0F901F9018951F920F920FB60F924F
:1001300011248F939F93EF93FF939091840080916C
:100140008300981761F0E0918300EF5FEF71E09317
:100150008300F0E0EB55FF4F80818CB901C05598CA
:10016000FF91EF919F918F910F900FBE0F901F9075
:1001700018951092840010928300109282001092C1
:10018000810097FF03C022E02BB99F7790BD89B90A
:1001900088E98AB986E880BD0895909182008091AF
:1001A0008100981781F0E0918100EF5FEF71E0939B
:1001B0008100F0E0EB57FF4F80819091800010921A
:1001C000800090E0089580E091E00895909184008F
:1001D0009F5F9F71209183009217E1F3E92FF0E078
:1001E000EB55FF4F808390938400559A0895CF93E9
:1001F000DF93EC0101C0EADF89918823E1F7DF9109
:10020000CF910895CF93DF93EC0101C0DFDFFE01B2
:10021000219684918823D1F7DF91CF91089585E8C5
:1002200090E09093C6008093C500089520918200CD
:100230009091810081E0291709F480E0089580E819
:1002400095E297DF78948BE290E0DCDF86E290E045
:1002500010DFFCCFFB0155915523A9F0BF01DC0154
:100260004D9145174111E1F759F4CD01059000205A
:1002700049F04D9140154111C9F3FB014111EFCFF8
:0C02800081E090E001970895F894FFCF12
:00000001FF
