:1000000016C030C02FC02EC02DC02CC02BC02AC09F
:1000100029C028C027C075C0A4C024C023C022C0E6
:1000200021C020C01FC04F4B0041540D00001124BF
:100030001FBECFE5D4E0DEBFCDBF10E0A0E6B0E04C
:10004000EEECF2E002C005900D92A036B107D9F7B0
:1000500010E0A0E6B0E001C01D92A03BB107E1F7BF
:1000600041D033C1CDCFEF92FF920F931F93CF9327
:100070007C0102D1882339F587EA90E060E070E0E6
:1000800048E050E01BD1C0E007EA10E0A4D0809324
:10009000AF008091AF00882339F08091AF00F80164
:1000A000EC0FF11D8083CF5F8091AF008D3071F731
:1000B00087EA90E0B701E8D0009741F0C701C4D0CB
:1000C00081E090E005C080E090E002C080E090E038
:1000D000CF911F910F91FF90EF9008958FEF87BB05
:1000E00088BB089583E390E062D0789489E290E041
:1000F000ABD0C6E2D0E0C0D08823E9F7CE01B3DFB1
:10010000FACF1F920F920FB60F9211242F933F93A5
:100110008F939F93EF93FF932BB13CB1809162003B
:100120008F5F8F7190916100891749F028718093DA
:100130006200E5E6F0E0E80FF11D308301C022E047
:1001400090916000822F892B80936000FF91EF9146
:100150009F918F913F912F910F900FBE0F901F9005
:1001600018951F920F920FB60F9211248F939F93A1
:10017000EF93FF939091640080916300981769F06A
:10018000809163008F5F8F7180936300E5E8F0E0FA
:10019000E80FF11D80818CB901C05598FF91EF9156
:1001A0009F918F910F900FBE0F901F9018951092F6
:1001B0006400109263001092620010926100992313
:1001C0001CF422E02BB99F7790BD89B988E98AB9E0
:1001D00086E880BD08959091620080916100981733
:1001E00089F0809161008F5F8F7180936100E5E6F7
:1001F000F0E0E80FF11D80819091600010926000A6
:1002000090E0089580E091E00895209164002F5FD0
:100210002F71909163002917E1F3E5E8F0E0E20F18
:10022000F11D808320936400559A0895CF93DF9346
:10023000EC018881882329F02196E7DF89918823C2
:10024000E1F7DF91CF910895CF93DF93EC01FC01AB
:100250008491882339F02196D8DFFE01219684917C
:100260008823D1F7DF91CF91089585E690E09093B0
:10027000A6008093A50008952091620090916100EE
:1002800081E0291380E00895FB0155915523A9F0E1
:10029000BF01DC014D9145174111E1F759F4CD0142
:1002A0000590002049F04D9140154111C9F3FB0123
:1002B0004111EFCF81E090E001970895DC0101C08A
:0E02C0006D9341505040E0F70895F894FFCF41
:00000001FF
