:1000000012C02CC02BC02AC029C028C027C026C0BF
:1000100025C024C023C022C021C020C01FC01EC0D4
:100020001DC01CC01BC011241FBECFE5D4E0DEBF25
:10003000CDBF10E0A0E6B0E0EAE9F0E002C0059034
:100040000D92A036B107D9F710E0A0E6B0E001C0EC
:100050001D92A036B107E1F716D01DC0D1CFDF93B6
:10006000CF9300D0CDB7DEB79A838983E7E3F0E082
:1000700089818083E8E3F0E08FEF80830F900F9019
:10008000CF91DF910895CF93DF93CDB7DEB78FEF98
:0A00900090E0E5DFFCCFF894FFCF0D
:00000001FF
