:1000000035C04FC04EC04DC04CC04BC04AC049C0A7
:1000100048C047C046C07FC0C8C043C042C041C0FE
:1000200040C03FC03EC04154004F4B005541525468
:10003000204672616D65204572726F723A200055DC
:10004000415254204F76657272756E204572726F00
:10005000723A2000427566666572206F7665726638
:100060006C6F77206572726F723A200011241FBE88
:10007000CFE5D4E0DEBFCDBF10E0A0E6B0E0ECE01D
:10008000F4E002C005900D92A436B107D9F710E054
:10009000A4E6B0E001C01D92A93AB107E1F702D091
:1000A000B3C1AECFCF93DF9300D0CDB7DEB783E33C
:1000B00090E0BCD0789486E290E064D101C000006A
:1000C000EED09A83898389819A818070917000979C
:1000D000B1F789819A8180709071009719F08CE254
:1000E00090E050D189819A8180709870009719F0C2
:1000F0008FE390E047D189819A8180709270009758
:1001000019F084E590E03ED180E690E029E230E00D
:10011000B90160D1D4CF1F920F920FB60F92112464
:100120002F938F939F93EF93FF93CF93DF9300D001
:1001300000D0CDB7DEB78BE290E0FC0180818A83EE
:100140008CE290E0FC0180818B838A8188718983B5
:100150008091A6008F5F8F718C838091A7009C8116
:10016000981719F482E089830BC08C818093A600D4
:100170008C81882F90E08C599F4F2B81FC0120832C
:100180009091A8008981892B8093A8002496DEBFD6
:10019000CDBFDF91CF91FF91EF919F918F912F91E3
:1001A0000F900FBE0F901F9018951F920F920FB6D1
:1001B0000F9211242F933F938F939F93EF93FF936D
:1001C000CF93DF930F92CDB7DEB79091A4008091CB
:1001D000A5009817A1F08091A5008F5F8F7189838A
:1001E00089818093A5008CE290E02981222F30E064
:1001F0002C573F4FF9012081FC01208309C08AE27E
:1002000090E02AE230E0F90120812F7DFC0120837B
:100210000F90DF91CF91FF91EF919F918F913F913F
:100220002F910F900FBE0F901F901895CF93DF93D3
:1002300000D0CDB7DEB79A8389831092A4001092C4
:10024000A5001092A6001092A70089819A81992397
:1002500054F48BE290E022E0FC01208389819A81B2
:100260009F779A83898380E490E029813A81232FC4
:100270003327FC01208389E290E02981FC0120835F
:100280008AE290E028E9FC01208380E490E026E8FF
:10029000FC0120830F900F90DF91CF910895CF93B1
:1002A000DF9300D0CDB7DEB79091A6008091A70074
:1002B000981719F480E091E017C08091A7008F5F34
:1002C0008F71898389818093A7008981882F90E02D
:1002D0008C599F4FFC0180818A838091A8001092E5
:1002E000A8008A81882F90E00F900F90DF91CF9126
:1002F0000895CF93DF9300D0CDB7DEB78A83809186
:10030000A4008F5F8F71898300008091A50099817F
:100310009817D9F38981882F90E08C579F4F2A81B5
:10032000FC01208389818093A4008AE290E02AE284
:1003300030E0F90120812062FC0120830F900F90B2
:10034000DF91CF910895CF93DF9300D0CDB7DEB783
:100350009A8389830CC089819A81FC018081282F2E
:1003600089819A8101969A838983822FC2DF89814C
:100370009A81FC018081882371F70F900F90DF91A3
:10038000CF9108951F93CF93DF9300D000D00F92A9
:10039000CDB7DEB79D838C8302C0812FAADF8C810D
:1003A0009D819A8389838C819D8101969D838C8315
:1003B00089819A81FC0114911B838B81182F112351
:1003C00061F70F900F900F900F900F90DF91CF91EA
:1003D0001F910895FB0155915523A9F0BF01DC0140
:1003E0004D9145174111E1F759F4CD0105900020D9
:1003F00049F04D9140154111C9F3FB014111EFCF77
:0C04000081E090E001970895F894FFCF90
:04040C004F4B000052
:00000001FF
