:1000000035C04FC04EC04DC04CC04BC04AC049C0A7
:1000100048C047C046C09CC0E5C043C042C041C0C4
:1000200040C03FC03EC04154004F4B005541525468
:10003000204672616D65204572726F723A200055DC
:10004000415254204F76657272756E204572726F00
:10005000723A2000427566666572206F7665726638
:100060006C6F77206572726F723A200011241FBE88
:10007000CFE5D4E0DEBFCDBF10E0A0E6B0E0E8E61B
:10008000F4E002C005900D92A436B107D9F710E054
:10009000A4E6B0E001C01D92AE3AB107E1F702D08C
:1000A000E1C1AECFCF93DF9300D0CDB7DEB783E30E
:1000B00090E0D9D0789486E290E081D101C0000030
:1000C0000BD19A83898389819A818070917000977E
:1000D000B1F789819A8180709071009719F08CE254
:1000E00090E06DD189819A8180709870009719F0A5
:1000F0008FE390E064D189819A818070927000973B
:1001000019F084E590E05BD180E690E029E230E0F0
:10011000B9018ED1009799F27AD19093AD00809376
:10012000AC008091AC009091AD0001969093AD0031
:100130008093AC008091AC009091AD00FC01808177
:100140008093AB008091AC009091AD0019D1B7CFF6
:100150001F920F920FB60F9211242F938F939F939C
:10016000EF93FF93CF93DF9300D000D0CDB7DEB7EE
:100170008BE290E0FC0180818A838CE290E0FC01BC
:1001800080818B838A81887189838091A8008F5FA9
:100190008F718C838091A9009C81981719F482E05B
:1001A00089830BC08C818093A8008C81882F90E07C
:1001B0008A579F4F2B81FC0120839091AA0089814F
:1001C000892B8093AA002496DEBFCDBFDF91CF910B
:1001D000FF91EF919F918F912F910F900FBE0F90F4
:1001E0001F9018951F920F920FB60F9211242F9304
:1001F0003F938F939F93EF93FF93CF93DF930F9250
:10020000CDB7DEB79091A6008091A7009817A1F016
:100210008091A7008F5F8F71898389818093A70068
:100220008CE290E02981222F30E02A593F4FF901DA
:100230002081FC01208309C08AE290E02AE230E0BC
:10024000F90120812F7DFC0120830F90DF91CF9158
:10025000FF91EF919F918F913F912F910F900FBE42
:100260000F901F901895CF93DF9300D0CDB7DEB7D6
:100270009A8389831092A6001092A7001092A8007A
:100280001092A90089819A81992354F48BE290E01D
:1002900022E0FC01208389819A819F779A83898358
:1002A00080E490E029813A81232F3327FC012083C9
:1002B00089E290E02981FC0120838AE290E028E92C
:1002C000FC01208380E490E026E8FC0120830F906D
:1002D0000F90DF91CF910895CF93DF9300D0CDB7EA
:1002E000DEB79091A8008091A900981719F480E0DA
:1002F00091E017C08091A9008F5F8F7189838981F8
:100300008093A9008981882F90E08A579F4FFC0134
:1003100080818A838091AA001092AA008A81882F06
:1003200090E00F900F90DF91CF910895CF93DF93DE
:1003300000D0CDB7DEB78A838091A6008F5F8F7122
:10034000898300008091A70099819817D9F389814A
:10035000882F90E08A599F4F2A81FC012083898150
:100360008093A6008AE290E02AE230E0F901208141
:100370002062FC0120830F900F90DF91CF910895B0
:10038000CF93DF9300D0CDB7DEB79A8389830CC0BB
:1003900089819A81FC018081282F89819A81019627
:1003A0009A838983822FC2DF89819A81FC018081AF
:1003B000882371F70F900F90DF91CF9108951F93CD
:1003C000CF93DF9300D000D00F92CDB7DEB79D83DF
:1003D0008C8302C0812FAADF8C819D819A838983BF
:1003E0008C819D8101969D838C8389819A81FC01FA
:1003F00014911B838B81182F112361F70F900F909D
:100400000F900F900F90DF91CF911F910895CF9390
:10041000DF93CDB7DEB786E890E0909365008093D8
:1004200064008091640090916500DF91CF91089500
:10043000FB0155915523A9F0BF01DC014D914517F2
:100440004111E1F759F4CD010590002049F04D919B
:1004500040154111C9F3FB014111EFCF81E090E05C
:0804600001970895F894FFCF05
:040468004F4B0000F6
:00000001FF
