:1000000015C02FC02EC02DC02CC02BC02AC029C0A7
:1000100028C027C026C05DC08CC023C022C021C01C
:1000200020C01FC01EC04F4B0041540011241FBEF2
:10003000CFE5D4E0DEBFCDBF10E0A0E6B0E0E2E95E
:10004000F2E002C005900D92A036B107D9F710E09A
:10005000A0E6B0E001C01D92A13BB107E1F702D0DC
:1000600016C1CECF83E390E08AD0789489E290E005
:10007000D3D017BAD1E007EA10E00F2EF6E2EF2E48
:10008000F0E0FF2EF02DD8BB8FEF9FE30197F1F743
:1000900000C018BA8FEF9FE30197F1F700C0D4D0EA
:1000A000882389F38FEF9FE30197F1F700C0C0E049
:1000B00005C0F801EC0FF11D8083CF5F74D0882359
:1000C000C1F7C801B701C9D00097E9F2C80196D0BD
:1000D000DACF1F920F920FB60F9211242F933F93F6
:1000E0008F939F93EF93FF932BB13CB1809162006C
:1000F0008F5F8F7190916100891749F0287180930B
:100100006200E5E6F0E0E80FF11D308301C022E077
:1001100090916000822F892B80936000FF91EF9176
:100120009F918F913F912F910F900FBE0F901F9035
:1001300018951F920F920FB60F9211248F939F93D1
:10014000EF93FF939091640080916300981769F09A
:10015000809163008F5F8F7180936300E5E8F0E02A
:10016000E80FF11D80818CB901C05598FF91EF9186
:100170009F918F910F900FBE0F901F901895109226
:100180006400109263001092620010926100992343
:100190001CF422E02BB99F7790BD89B988E98AB910
:1001A00086E880BD08959091620080916100981763
:1001B00089F0809161008F5F8F7180936100E5E627
:1001C000F0E0E80FF11D80819091600010926000D6
:1001D00090E0089580E091E00895209164002F5F01
:1001E0002F71909163002917E1F3E5E8F0E0E20F49
:1001F000F11D808320936400559A0895CF93DF9377
:10020000EC018881882329F02196E7DF89918823F2
:10021000E1F7DF91CF910895CF93DF93EC01FC01DB
:100220008491882339F02196D8DFFE0121968491AC
:100230008823D1F7DF91CF91089585E690E09093E0
:10024000A6008093A500089520916200909161001E
:1002500081E0291709F480E00895FB0155915523A9
:10026000A9F0BF01DC014D9145174111E1F759F4A7
:10027000CD010590002049F04D9140154111C9F381
:10028000FB014111EFCF81E090E001970895F894D0
:02029000FFCF9E
:00000001FF
