:1000000012C02CC02BC02AC029C028C027C026C0BF
:1000100025C024C023C033C1EBC020C01FC01EC0F8
:100020001DC01CC01BC011241FBECFE5D4E0DEBF25
:10003000CDBF10E0A0E6B0E0E4EEF2E002C0059033
:100040000D92A236B107D9F710E0A2E6B0E001C0E8
:100050001D92AA3CB107E1F77CD042C1D1CFCF932A
:10006000DF930F92CDB7DEB789838091C6008B35C1
:1000700078F48091C600882F90E08E599F4F298197
:10008000FC0120838091C6008F5F8093C60001C071
:1000900000000F90DF91CF910895CF93DF930F92DF
:1000A000CDB7DEB71AD0982F81E08927882381F059
:1000B0008091C600882F90E08E599F4FFC0180816F
:1000C00089838091C60081508093C600898101C0D8
:1000D00080E00F90DF91CF910895CF93DF93CDB75C
:1000E000DEB78091C600882311F481E001C080E072
:1000F000DF91CF910895CF93DF930F92CDB7DEB705
:1001000089838091C8009091C9002981FC012083D6
:100110008091C8009091C90001969093C900809386
:10012000C8000F90DF91CF910895CF93DF93CDB7A3
:10013000DEB78091C6008093C7008AE290E02AE291
:1001400030E0F90120812062FC012083DF91CF9112
:100150000895CF93DF93CDB7DEB78AE290E02AE22D
:1001600030E0F90120812861FC01208380E490E0E7
:1001700020E430E0F90120812668FC01208380E43E
:1001800090E0FC01108289E290E023E3FC012083EF
:100190008AE290E02AE230E0F90120812068FC0147
:1001A000208386E690E09093C9008093C8007894FD
:1001B00084E390E023E0FC01208301C0000085E39C
:1001C00090E021E0FC0120832091C60081E090E0D6
:1001D000253010F480E090E020916000222F30E084
:1001E00082239323009751F3109260009EDFE6CFA5
:1001F0001F920F920FB60F9211242F933F934F939C
:100200005F936F937F938F939F93AF93BF93EF937E
:10021000FF93CF93DF93CDB7DEB75FDF982F81E0F9
:100220008927882381F08CE290E020E4FC01208380
:100230008091C7008F5F8093C7008091C600815076
:100240008093C60009C08AE290E02AE230E0F9011A
:1002500020812F7DFC012083DF91CF91FF91EF91D1
:10026000BF91AF919F918F917F916F915F914F91CE
:100270003F912F910F900FBE0F901F9018951F92D6
:100280000F920FB60F9211242F933F934F935F93CA
:100290006F937F938F939F93AF93BF93EF93FF934E
:1002A000CF93DF930F92CDB7DEB78CE290E0FC01E5
:1002B000808189838981D3DE0F90DF91CF91FF9177
:1002C000EF91BF91AF919F918F917F916F915F91CE
:1002D0004F913F912F910F900FBE0F901F90189547
:0402E000F894FFCFC0
:0202E400010017
:00000001FF
